{
  "_format": "hh-sol-artifact-1",
  "contractName": "Election",
  "sourceName": "contracts/Election.sol",
  "abi": [
    {
      "inputs": [],
      "stateMutability": "nonpayable",
      "type": "constructor"
    },
    {
      "anonymous": false,
      "inputs": [
        {
          "indexed": true,
          "internalType": "uint256",
          "name": "_candidateId",
          "type": "uint256"
        }
      ],
      "name": "votedEvent",
      "type": "event"
    },
    {
      "inputs": [],
      "name": "Elect",
      "outputs": [],
      "stateMutability": "nonpayable",
      "type": "function"
    },
    {
      "inputs": [
        {
          "internalType": "uint256",
          "name": "",
          "type": "uint256"
        }
      ],
      "name": "candidates",
      "outputs": [
        {
          "internalType": "uint256",
          "name": "id",
          "type": "uint256"
        },
        {
          "internalType": "string",
          "name": "name",
          "type": "string"
        },
        {
          "internalType": "uint256",
          "name": "voteCount",
          "type": "uint256"
        }
      ],
      "stateMutability": "view",
      "type": "function"
    },
    {
      "inputs": [],
      "name": "candidatesCount",
      "outputs": [
        {
          "internalType": "uint256",
          "name": "",
          "type": "uint256"
        }
      ],
      "stateMutability": "view",
      "type": "function"
    },
    {
      "inputs": [],
      "name": "count",
      "outputs": [
        {
          "internalType": "uint256",
          "name": "",
          "type": "uint256"
        }
      ],
      "stateMutability": "view",
      "type": "function"
    },
    {
      "inputs": [
        {
          "internalType": "uint256",
          "name": "_candidateId",
          "type": "uint256"
        }
      ],
      "name": "getCandidateVotes",
      "outputs": [
        {
          "internalType": "uint256",
          "name": "",
          "type": "uint256"
        }
      ],
      "stateMutability": "view",
      "type": "function"
    },
    {
      "inputs": [],
      "name": "getNbVoters",
      "outputs": [
        {
          "internalType": "uint256",
          "name": "",
          "type": "uint256"
        }
      ],
      "stateMutability": "view",
      "type": "function"
    },
    {
      "inputs": [],
      "name": "organizer",
      "outputs": [
        {
          "internalType": "address",
          "name": "",
          "type": "address"
        }
      ],
      "stateMutability": "view",
      "type": "function"
    },
    {
      "inputs": [
        {
          "internalType": "uint256",
          "name": "_candidateId",
          "type": "uint256"
        }
      ],
      "name": "vote",
      "outputs": [],
      "stateMutability": "nonpayable",
      "type": "function"
    },
    {
      "inputs": [
        {
          "internalType": "address",
          "name": "",
          "type": "address"
        }
      ],
      "name": "voters",
      "outputs": [
        {
          "internalType": "bool",
          "name": "",
          "type": "bool"
        }
      ],
      "stateMutability": "view",
      "type": "function"
    }
  ],
  "bytecode": "0x6080604052600060015534801561001557600080fd5b50336000806101000a81548173ffffffffffffffffffffffffffffffffffffffff021916908373ffffffffffffffffffffffffffffffffffffffff160217905550610bb7806100656000396000f3fe608060405234801561001057600080fd5b50600436106100935760003560e01c8063612032651161006657806361203265146101225780636ea212ca1461014057806379e80c831461015e578063866163c014610168578063a3ec138d1461019857610093565b80630121b93f1461009857806306661abd146100b45780632d35a8a2146100d25780633477ee2e146100f0575b600080fd5b6100b260048036038101906100ad9190610722565b6101c8565b005b6100bc610372565b6040516100c99190610979565b60405180910390f35b6100da610378565b6040516100e79190610979565b60405180910390f35b61010a60048036038101906101059190610722565b61037e565b60405161011993929190610994565b60405180910390f35b61012a610430565b60405161013791906108e3565b60405180910390f35b610148610454565b6040516101559190610979565b60405180910390f35b61016661045e565b005b610182600480360381019061017d9190610722565b6104dc565b60405161018f9190610979565b60405180910390f35b6101b260048036038101906101ad91906106f9565b61058a565b6040516101bf91906108fe565b60405180910390f35b600260003373ffffffffffffffffffffffffffffffffffffffff1673ffffffffffffffffffffffffffffffffffffffff16815260200190815260200160002060009054906101000a900460ff1615610255576040517f08c379a000000000000000000000000000000000000000000000000000000000815260040161024c90610919565b60405180910390fd5b60008111801561026757506004548111155b6102a6576040517f08c379a000000000000000000000000000000000000000000000000000000000815260040161029d90610959565b60405180910390fd5b6001600260003373ffffffffffffffffffffffffffffffffffffffff1673ffffffffffffffffffffffffffffffffffffffff16815260200190815260200160002060006101000a81548160ff0219169083151502179055506001600081548092919061031190610a9b565b919050555060036000828152602001908152602001600020600201600081548092919061033d90610a9b565b9190505550807ffff3c900d938d21d0990d786e819f29b8d05c1ef587b462b939609625b684b1660405160405180910390a250565b60015481565b60045481565b60036020528060005260406000206000915090508060000154908060010180546103a790610a69565b80601f01602080910402602001604051908101604052809291908181526020018280546103d390610a69565b80156104205780601f106103f557610100808354040283529160200191610420565b820191906000526020600020905b81548152906001019060200180831161040357829003601f168201915b5050505050908060020154905083565b60008054906101000a900473ffffffffffffffffffffffffffffffffffffffff1681565b6000600154905090565b61049c6040518060400160405280601081526020017f5361746f736869204e616b616d6f746f000000000000000000000000000000008152506105aa565b6104da6040518060400160405280600f81526020017f566974616c696b204275746572696e00000000000000000000000000000000008152506105aa565b565b60003373ffffffffffffffffffffffffffffffffffffffff1660008054906101000a900473ffffffffffffffffffffffffffffffffffffffff1673ffffffffffffffffffffffffffffffffffffffff161461056c576040517f08c379a000000000000000000000000000000000000000000000000000000000815260040161056390610939565b60405180910390fd5b60036000838152602001908152602001600020600201549050919050565b60026020528060005260406000206000915054906101000a900460ff1681565b600460008154809291906105bd90610a9b565b919050555060405180606001604052806004548152602001828152602001600081525060036000600454815260200190815260200160002060008201518160000155602082015181600101908051906020019061061b92919061062c565b506040820151816002015590505050565b82805461063890610a69565b90600052602060002090601f01602090048101928261065a57600085556106a1565b82601f1061067357805160ff19168380011785556106a1565b828001600101855582156106a1579182015b828111156106a0578251825591602001919060010190610685565b5b5090506106ae91906106b2565b5090565b5b808211156106cb5760008160009055506001016106b3565b5090565b6000813590506106de81610b53565b92915050565b6000813590506106f381610b6a565b92915050565b60006020828403121561070b57600080fd5b6000610719848285016106cf565b91505092915050565b60006020828403121561073457600080fd5b6000610742848285016106e4565b91505092915050565b610754816109ee565b82525050565b61076381610a00565b82525050565b6000610774826109d2565b61077e81856109dd565b935061078e818560208601610a36565b61079781610b42565b840191505092915050565b60006107af6017836109dd565b91507f596f752063616e206f6e6c7920766f7465206f6e6365210000000000000000006000830152602082019050919050565b60006107ef6049836109dd565b91507f43616e2774206b6e6f7720686f77206d616e7920766f7465732065616368206360008301527f616e6469646174652068617320756e6c65737320796f7520617265207468652060208301527f6f7267616e697a657200000000000000000000000000000000000000000000006040830152606082019050919050565b600061087b6025836109dd565b91507f49742068617320746f206265206f6e65206f662074686520322063616e64696460008301527f61746573210000000000000000000000000000000000000000000000000000006020830152604082019050919050565b6108dd81610a2c565b82525050565b60006020820190506108f8600083018461074b565b92915050565b6000602082019050610913600083018461075a565b92915050565b60006020820190508181036000830152610932816107a2565b9050919050565b60006020820190508181036000830152610952816107e2565b9050919050565b600060208201905081810360008301526109728161086e565b9050919050565b600060208201905061098e60008301846108d4565b92915050565b60006060820190506109a960008301866108d4565b81810360208301526109bb8185610769565b90506109ca60408301846108d4565b949350505050565b600081519050919050565b600082825260208201905092915050565b60006109f982610a0c565b9050919050565b60008115159050919050565b600073ffffffffffffffffffffffffffffffffffffffff82169050919050565b6000819050919050565b60005b83811015610a54578082015181840152602081019050610a39565b83811115610a63576000848401525b50505050565b60006002820490506001821680610a8157607f821691505b60208210811415610a9557610a94610b13565b5b50919050565b6000610aa682610a2c565b91507fffffffffffffffffffffffffffffffffffffffffffffffffffffffffffffffff821415610ad957610ad8610ae4565b5b600182019050919050565b7f4e487b7100000000000000000000000000000000000000000000000000000000600052601160045260246000fd5b7f4e487b7100000000000000000000000000000000000000000000000000000000600052602260045260246000fd5b6000601f19601f8301169050919050565b610b5c816109ee565b8114610b6757600080fd5b50565b610b7381610a2c565b8114610b7e57600080fd5b5056fea26469706673582212201dfd48848f20bacb910a976aed381eac2748bc443d011642423efa251e85d3d964736f6c63430008000033",
  "linkReferences": {},
  "deployedLinkReferences": {}
}